:020000040800F2
:1000000000000220652600081524000817240008B7
:10001000192400081B2400081D240008000000000B
:100020000000000000000000000000001F24000885
:1000300021240008000000002324000825240008D3
:10004000B5260008B5260008B5260008B526000824
:10005000B5260008B5260008B5260008B526000814
:10006000B5260008B5260008B5260008B526000804
:10007000B5260008B5260008B5260008B5260008F4
:10008000B5260008B526000829240008B526000872
:10009000B5260008B5260008B5260008B5260008D4
:1000A000B5260008B5260008B5260008B5260008C4
:1000B000B5260008B5260008B5260008B5260008B4
:1000C000B5260008B5260008B5260008B5260008A4
:1000D000B5260008B526000835240008B526000816
:1000E00041240008B5260008B5260008B5260008FA
:1000F000B5260008B5260008B5260008B526000874
:10010000B5260008B5260008B5260008B526000863
:10011000B5260008B5260008B5260008B526000853
:10012000B5260008B5260008B5260008B526000843
:10013000B52600080000000000000000B5260008F9
:10014000B5260008B5260008B5260008B526000823
:10015000B5260008B5260008B5260008B526000813
:10016000B5260008B5260008B5260008B526000803
:10017000B5260008B5260008B526000800000000D6
:1001800000000000B526000800000000000000008C
:10019000B52600080000000000000000B526000899
:1001A000000000000000000000000000B52600086C
:1001B000B5260008B5260008B5260008B5260008B3
:0401C000B526000858
:1001D00010B5054C237833B9044B13B10448AFF381
:1001E00000800123237010BDE80000200000000003
:1001F000DC38000808B5034B1BB103490348AFF3D3
:10020000008008BD00000000EC000020DC38000881
:10021000034613F8012B002AFBD1181A0138704746
:1002200001F0FF01102A2BDB10F0070F08D010F8A7
:10023000013B013A8B422DD010F0070F42B3F6D1AB
:10024000F0B441EA012141EA014122F007047FF0C4
:1002500000070023F0E80256083C85EA010586EA1B
:10026000010685FA47F5A3FA87F586FA47F6A5FA57
:1002700087F68EB9EED1F0BC01F0FF0102F0070263
:1002800032B110F8013B013A83EA010313B1F8D10E
:100290000020704701387047002D06BF35460338EF
:1002A000073815F0010F07D1013015F4807F02BF28
:1002B000013015F4C03F0130F0BC0138704700BF79
:1002C00053B94AB9002908BF00281CBF4FF0FF31BD
:1002D0004FF0FF3000F072B9ADF1080C6DE904CEBB
:1002E00000F006F8DDF804E0DDE9022304B0704711
:1002F0002DE9F047089E04468846002B4BD18A42E0
:10030000154667D9B2FA82F24AB1C2F1200701FA62
:1003100002F320FA07F7954047EA030894404FEAB2
:10032000154E230CB8FBFEF71FFA85FC0EFB178851
:1003300043EA084307FB0CF1994209D9EB1807F18E
:10034000FF3080F01B81994240F21881023F2B441C
:100350005B1AA4B2B3FBFEF00EFB103344EA034475
:1003600000FB0CFCA44509D92C1900F1FF3380F0E7
:100370000781A44540F2048102382C4440EA07403A
:10038000A4EB0C0400271EB1D4400023C6E90043AF
:100390003946BDE8F0878B4209D9002E00F0EB808A
:1003A0000027C6E9000138463946BDE8F087B3FAB0
:1003B00083F7002F47D18B4202D3824200F2FA80AA
:1003C000841A61EB030301209846002EE0D0C6E9B1
:1003D0000048DDE702B9FFDEB2FA82F2002A40F0FF
:1003E0008F80491B4FEA154E1FFA85F80127B1FB94
:1003F000FEFC230C0EFB1C1143EA014308FB0CF12D
:10040000994207D9EB180CF1FF3002D2994200F261
:10041000CD808446591AA3B2B1FBFEF00EFB101436
:1004200043EA044408FB00F8A04507D92C1900F161
:10043000FF3302D2A04500F2B6801846A4EB0804B0
:1004400040EA0C409FE7C7F1200CBB4022FA0CFEAB
:100450004EEA030E01FA07F420FA0CF521FA0CF328
:100460004FEA1E482543B3FBF8F92C0C08FB19335F
:100470001FFA8EFA44EA034309FB0AF49C4202FA8B
:1004800007F200FA07F10BD91EEB030309F1FF3065
:1004900080F087809C4240F28480A9F10209734475
:1004A0001B1BADB2B3FBF8F008FB103345EA034465
:1004B00000FB0AFAA24508D91EEB040400F1FF3341
:1004C0006BD2A24569D90238744440EA0940A0FBC6
:1004D0000289A4EB0A044C45C2464B4654D351D082
:1004E000002E69D0B1EB0A0564EB030404FA0CFC9E
:1004F000FD40FC404CEA0505C6E90054002747E7EB
:10050000C2F1200320FA03F7954001FA02F021FA24
:1005100003F34FEA154E3843010CB3FBFEF71FFA05
:1005200085F80EFB173341EA034107FB08F38B42C2
:1005300004FA02F407D9691807F1FF3C2FD28B4265
:100540002DD9023F2944CB1A81B2B3FBFEF00EFB3A
:10055000103341EA034100FB08F38B4207D96918C5
:1005600000F1FF3C17D28B4215D902382944C91A31
:1005700040EA07473BE73746304609E70746E7E6E4
:100580001846FBE64145ABD2B8EB020A69EB0E0216
:1005900001381346A4E76046E9E7184695E7674641
:1005A000D1E781467CE702382C4447E7ACF1020CE6
:1005B0002B442FE7384608E73746E9E6704700BF87
:1005C000F0B50023DFF874E0144CDFF874C0144E6B
:1005D000144F1A461E25591C1E2991FBF5F005FBE8
:1005E000101003F80E2018554CF8232046F82370FD
:1005F0000B46F0D10C490D48FF230B7063770C4B71
:100600000C491A7000231A4640F823205A5401332B
:100610000A2BF9D1084B1A70F0BD00BFD0020020A0
:10062000F002002000000020D10100201001002075
:10063000B00100204C020020B1010020B2010020D6
:10064000D401002070470000F8B5134C134E144D30
:100650002378FF2B05D056F8237000F0FBF8874273
:1006600000D3F8BD72B60F4A23782B70D15C21708D
:10067000EE21D1540C4A1378013B137062B60B493A
:100680002B780B4A51F8230052F8232090472B78FF
:10069000084A0021D154DBE7D101002038010020B5
:1006A000D0010020D0020020B1010020580200201B
:1006B000D4010020B201002010B5084900235C5C81
:1006C000DAB22CB101330A2BF9D1FF22104610BD4A
:1006D000034C44F823000120C854F7E74C020020E3
:1006E00010010020094A08B50023995CD8B211B95D
:1006F0000321D15408BD01331E2BF6D1044B05480C
:10070000197802F005F8FF20F4E700BFB2010020DD
:10071000B1010020F43800082DE9F047DFF89CA073
:100720001F468946904606469AF80050FFF7DAFFC2
:100730003A4604460146194801F0EAFFFF2C1ED054
:10074000174A137801331370164A174B01211155BC
:10075000164A9AF8001042F82490154A43F824608B
:1007600042F82480134AFF2942F82470124A03D029
:1007700053F82100B04205D911558AF800402046AF
:10078000BDE8F0872946555DFF2D03D053F82500BD
:10079000B042F7D315555454F1E700BF0B390008A8
:1007A000B1010020B201002038010020D401002056
:1007B00058020020F0020020D0020020D1010020C9
:1007C00038B50E4A0E4B054618784FF47A73B3FBD2
:1007D000F0F31068B0FBF3F000F042FB044658B9A8
:1007E0000F2D09D8024629464FF0FF3000F0F6FAE7
:1007F000044B20461D6038BD0120FCE7100000209E
:10080000050000200800002008B50B4B1A6842F4D0
:1008100000721A601A6842F480621A601A6842F420
:1008200080721A60032000F0C7FA0020FFF7C8FFAB
:1008300001F030FD002008BD003C0240034A044B9B
:1008400011681B780B441360704700BF68030020D9
:1008500005000020014B1868704700BF68030020A6
:1008600038B50446002800F09B80056C25B901F0DE
:100870002FFD656484F83C50236CDB0600F18E800C
:10088000236C23F4885323F0020343F00203236410
:10089000444B5A6822F440325A605A6861680A43ED
:1008A0005A60236821695A6822F480725A605A6833
:1008B00042EA01225A605A68A16822F040725A60E6
:1008C0005A680A435A609A68E16822F400629A60A2
:1008D0009A680A439A603449A26A8A4252D0996857
:1008E00021F07061996099680A439A609A68E16A98
:1008F00022F040529A609A680A439A609A68217E70
:1009000022F002029A609A6842EA41029A6094F8E0
:100910002020002A3ED05A68616A42F400625A6080
:100920005A6822F460425A605A68013942EA4132F8
:100930005A60DA6AE16922F47002DA62DA6A01392D
:1009400042EA0152DA629A6894F8301022F4007296
:100950009A609A6842EA41229A609A68616922F430
:1009600080629A609A68002042EA81229A606064FC
:10097000236C23F0030343F001032364002384F872
:100980003C3038BD9A6822F070629A609A6822F012
:100990004052B2E75A6822F40062C9E70120EDE74D
:1009A0000120EEE7002301400100000F03689A6870
:1009B00070B5560504460D460BD59B68D80508D57D
:1009C000236C43F020032364002384F83C3001208F
:1009D00070BDFFF73FFF064623681A6892070CD5E3
:1009E0006FF012021A60226C42F4007222649A685C
:1009F00012F0405F13D00020EAE7691CEDD045B942
:100A0000236C43F004032364002384F83C30032068
:100A1000DEE7FFF71FFF801BA842DDD9F0E7227E4B
:100A2000002AE8D1DA6A12F4700F02D09B685B05E5
:100A3000E1D4236C23F480732364206C10F4805081
:100A4000D9D1236C43F001032364C1E782B00023B2
:100A5000019390F83C30012B67D0012380F83C30A3
:100A600003689A68D10705D59A68D20714D4002084
:100A700002B070479A682E4942F001029A602D4AEE
:100A80001268B2FBF1F202EB42020192019A002AD3
:100A9000EAD0019A013AF8E7026C22F4E06222F00F
:100AA000010242F4807202645A68510541BF026C2F
:100AB00022F4405242F480520264026C12F48052DA
:100AC0001CBF426C22F006024264002280F83C20E7
:100AD0006FF022021A605A6842F0806242F02002EF
:100AE0005A60154A516811F01F0F14491AD18B42F0
:100AF00006D001F580718B420BD15268D206B6D177
:100B0000986810F04050B2D19A6842F080429A60E2
:100B1000AEE70B498B42AAD1526802F01F020F2A9E
:100B2000EED9A4E78B42A2D1EAE70220A0E700BFFA
:100B300040420F001000002000230140002001402F
:100B4000002201400368D86C70477047704738B581
:100B5000036819685A688D0704462BD5900629D575
:100B6000226CD1065EBF226C42F4007222649A6845
:100B700012F0405F17D1227EAAB9DA6A12F4700F20
:100B800002D09A6852050ED45A6822F020025A60A8
:100B9000236C23F480732364236CDB045EBF236C1B
:100BA00043F001032364204601F072FB23686FF0D9
:100BB00012021A60236819685A684D0732D5100668
:100BC00030D5226CD1065EBF226C42F40052226402
:100BD0009A6812F4401F1ED19A6B12F4401F02D083
:100BE0009A68520517D45A68550514D49A6812F0B9
:100BF000405F10D1227E72B95A6822F080025A609A
:100C0000236C23F480532364236CD8055EBF236CCC
:100C100043F001032364204600F0CCF823686FF012
:100C20000C021A60236819685A68C9070FD555065F
:100C30000DD51B68D8070AD5236C43F48033236491
:100C40002046FFF782FF23686FF001021A602368D5
:100C500019685A6889060DD552010BD5626C6FF080
:100C6000200542F00202626420461D60FFF76EFF1D
:100C700023681D6038BD0000F7B50023019390F88C
:100C80003C30012B6AD00D688E680123092D80F855
:100C90003C30ACB2036829D904EB4402DF681E3A49
:100CA0004FF0070C0CFA02FC27EA0C07DF60DF6844
:100CB00006FA02F23A43DA604968062901EB81023A
:100CC00024D8596B053A1F26964021EA060159633C
:100CD000596B04FA02F20A435A63314A934231D003
:100CE000002380F83C30184603B0F0BD1F6905EBC7
:100CF00045024FF0070C0CFA02FC27EA0C071F61B3
:100D00001F6906FA02F23A431A61D5E70C294FF03F
:100D10001F010BD81E6B233A914026EA010119638B
:100D2000196B04FA02F20A431A63D6E7DE6A413A03
:100D3000914026EA0101D962D96A04FA02F20A4313
:100D4000DA62CAE7122D0BD1164B5A6822F4000260
:100D50005A605A6842F480025A60C1E70220C3E731
:100D6000114B9D4201D0112DBAD10E4B5A6822F47D
:100D700080025A605A6842F400025A600A4B9D424F
:100D8000AED10A4B0A4A1B68B3FBF2F20A23534363
:100D90000193019B002BA3D0019B013BF8E700BF0F
:100DA000002001400023014012000010100000202C
:100DB00040420F0070470000074AD36823F4E06305
:100DC0001B041B0C43F0BF63000243F4003300F428
:100DD000E0600343D360704700ED00E0174B70B54F
:100DE000DC68C4F30224C4F10705042D04F10403F4
:100DF00028BF04254FF0FF36062B06FA05F38CBFFB
:100E0000033C002421EA0303A34006FA04F422EA87
:100E10000404002843EA0403A8BF00F160404FEA3D
:100E20000313BCBF00F00F00054ADBB2AABF00F5F8
:100E30006140135480F8003370BD00BF00ED00E046
:100E400014ED00E0002808DB4209012300F01F0038
:100E500003FA00F0014B43F82200704700E100E084
:100E60000138B0F1807F0AD2064B074A5860F02162
:100E700082F823100020072298601A607047012032
:100E8000704700BF10E000E000ED00E090F8353062
:100E9000022B03D08023436501207047026805239D
:100EA00080F83530136823F0010313600020704789
:100EB0002DE9F04F85B00B68DFF8A081654ADFF8B7
:100EC000A091019300230124019D9C402540AC4248
:100ED00040F0AC804C6824F0100C4FEA430E03261F
:100EE0000CF1FF3706FA0EF6012F6FEA060611D84D
:100EF000876807EA060ACF6807FA0EF747EA0A0783
:100F00008760476827EA050AC4F300179F4047EA4D
:100F10000A074760C76807EA060A8F6807FA0EF7EC
:100F200047EA0A07BCF1020FC76016D14FEAD30A9D
:100F300000EB8A0A03F0070BDAF820704FEA8B0BFC
:100F40004FF00F0C0CFA0BFC27EA0C0C0F6907FA98
:100F50000BF747EA0C07CAF8207007683E4004F018
:100F6000030707FA0EFE4EEA06060660E6005DD5A8
:100F70004FF0000BCDF80CB0D8F84470364E47F463
:100F80008047C8F84470D8F8447007F48047039746
:100F9000039F23F0030707F1804707F59C3703F011
:100FA000030ED7F808A04FEA8E0E4FF00F0C0CFA84
:100FB0000EFCB0422AEA0C0C3FD006F58066B04227
:100FC0003DD006F58066B0423BD006F58066B04263
:100FD00039D006F58066B04237D0484537D006F59F
:100FE0000066B04214BF0726062606FA0EF646EA49
:100FF0000C06BE601668EF4314F4803F0CBF3E4001
:101000002E431660566814F4003F0CBF3E402E433A
:101010005660966814F4801F0CBF3E402E439660C5
:10102000D668A40254BF3E402E43D6600133102B35
:101030007FF449AF05B0BDE8F08F5E46D5E70126E5
:10104000D3E70226D1E70326CFE70426CDE705261E
:10105000CBE700BF003C01400000024000380240E6
:10106000001402400369194214BF01200020704798
:101070000AB1816170470904FBE7000008B5044B21
:101080005969014202D0586101F0E8F808BD00BF7B
:10109000003C01402DE9F0410D46044610B9012005
:1010A000BDE8F081434B1A6802F00F028A4228D350
:1010B00021688F072DD4C80740D43E4B1A6802F030
:1010C0000F02AA4265D8226851076BD4130707D5CF
:1010D000394A2169936823F4604343EAC10393606A
:1010E00000F092F8344B354A9B68C3F30313D35C8A
:1010F000D840334B1860334B1868FFF761FB002072
:10110000CEE7CAB21A701B6803F00F038B42C6D138
:10111000CEE7294B11F0040F1EBF9A6842F4E0524B
:101120009A600E0742BF9A6842F460429A609A68D9
:10113000A06822F0F00202439A60BCE762681E4B8E
:10114000012A1CD11B6813F4003FA8D01A4EB368C3
:1011500023F003031343B360FFF77CFB41F28838AD
:101160000746B368626803F00C03B3EB820FA4D0A8
:10117000FFF770FBC01B4045F3D9032090E7911E99
:1011800001291B6802D813F0007FDEE713F0020F7D
:10119000DBE7EAB21A701B6803F00F03AB427FF47F
:1011A0007EAF90E70449E0688B6823F4E053034383
:1011B0008B608BE7003C0240003802402039000879
:1011C0001000002008000020044B054A9B68C3F370
:1011D0008223D35C034A1068D8407047003802402D
:1011E0003039000810000020044B054A9B68C3F307
:1011F0004233D35C034A1068D8407047003802403D
:101200003039000810000020204908B58B6803F031
:101210000C03082B07D00C2B20D01D481D4A042B93
:1012200018BF104608BD4A684B68496813F480032C
:1012300014BF17481748C1F3881118BF002302F0E4
:101240003F02A1FB0001FFF73BF8104B5B68C3F3C3
:10125000014301335B00B0FBF3F0E3E74A684B68FE
:10126000496813F4800314BF09480A48C1F3881180
:1012700018BF002302F03F02A1FB0001FFF720F896
:10128000024B5B68C3F30273E5E700BF003802401E
:1012900000127A000024F40003682DE9F341DF070F
:1012A000044610D423689E0767D423681A0700F108
:1012B000B28023685B0700F1D080A269002A40F069
:1012C000398100201EE0974B9A6802F00C02042A34
:1012D00010D09A6802F00C02082A02D15B685D0205
:1012E00008D4904B9A6802F00C020C2A0DD15A686F
:1012F00050020AD58B4B1B689903D3D56368002B2A
:10130000D0D1012002B0BDE8F0816268B2F5803F23
:1013100011D11A6842F480321A60FFF79BFA814DAE
:1013200006462B689A03BDD4FFF794FA801B642805
:10133000F7D90320E6E77B4DB2F5A02F2B6807D144
:1013400043F480232B602B6843F480332B60E4E765
:1013500023F480332B602B6823F480232B60002A36
:10136000DBD1FFF777FA06462B689B039AD5FFF788
:1013700071FA801B6428F7D9DBE76A4B9A6812F090
:101380000C0F10D09A6802F00C02082A02D15B6898
:101390005F0208D5634A936803F00C030C2B11D14C
:1013A00053685E020ED45F4B1A68950702D5E26857
:1013B000012AA6D11A68216922F0F80242EAC10284
:1013C0001A6072E7E268584BB2B101221A60FFF767
:1013D00041FA544D06462B68980707D52B682269B9
:1013E00023F0F80343EAC2032B605EE7FFF732FA0B
:1013F000801B0228EFD99CE71A60FFF72BFA494DB2
:1014000006462B6899077FF550AFFFF723FA801B3C
:101410000228F6D98DE76269444B7AB101221A603D
:10142000FFF718FA3F4D06466B6F9F073FF541AF38
:10143000FFF710FA801B0228F6D97AE71A60FFF747
:1014400009FA384D06466B6F98077FF532AFFFF704
:1014500001FA801B0228F6D96BE7324B1A6C12F0A6
:10146000805228D101921A6C42F080521A641B6C8F
:1014700003F080530193019B01262D4D2B68D90564
:101480001BD5A368274D012B27D12B6F43F00103F8
:101490002B67FFF7DFF9234D074641F288382B6FA2
:1014A0009B0739D5002E3FF408AF1E4A136C23F07A
:1014B0008053136401E70026DFE72B6843F4807351
:1014C0002B60FFF7C7F907462B68DA05D9D4FFF779
:1014D000C1F9C01B0228F7D92BE7052B04D12B6FCC
:1014E00043F004032B67D0E72A6F22F001022A673A
:1014F0002A6F22F004022A67002BCAD1FFF7AAF94B
:1015000041F2883807462B6F9807CBD5FFF7A2F931
:10151000C01B4045F7D90CE7FFF79CF9C01B4045BD
:10152000BDD906E70038024000004742800E47421E
:1015300000700040234DAB6803F00C03082B3FF410
:10154000E0AE214E0023022A33602DD1FFF782F94D
:1015500007462B68990121D4D4E907321343626A04
:1015600043EA8213E26A43EA0263226B43EA0273AC
:10157000A26A144C5208013A43EA02436B60012309
:101580003360FFF767F9054623689A013FF599AE86
:10159000FFF760F9401B0228F6D9CAE6FFF75AF9AF
:1015A000C01B0228D5D9C4E6FFF754F904462B68BE
:1015B0009B017FF586AEFFF74DF9001B0228F6D997
:1015C000B7E600BF0038024060004742036A23F0DC
:1015D00001030362036A70B5446882690D6822F0F2
:1015E00073022A438D6823F002032B430E4DA84259
:1015F00002D00E4EB04210D1CE6823F00803334320
:10160000A84223F0040302D0084DA84205D1D1E935
:10161000055624F4407435432C43446082614A6883
:101620004263036270BD00BF00000140000401403E
:10163000036A23F480730362036A70B54468C26965
:101640000D6822F073022A438D6823F4007343EA85
:101650000523114DA84203D005F58065A84214D199
:10166000CD6823F4006343EA05230B4DA84223F41D
:10167000806303D005F58065A84206D1D1E90556FF
:1016800024F44054354344EA05144460C2614A6876
:10169000C263036270BD00BF00000140036A23F40F
:1016A00080530362036A30B54468C2690D6822F44E
:1016B000E64242EA05228D6823F4005343EA0533EB
:1016C000084DA84203D005F58065A84204D14D69B4
:1016D00024F4804444EA85144460C2614A68026488
:1016E000036230BD00000140022380F83D300368F2
:1016F0009A6802F00702062A1EBF1A6842F0010229
:101700001A60012380F83D300020704770470000C8
:10171000304A0368904212D0B0F1804F0FD0A2F54A
:101720007C4290420BD002F58062904207D002F5D5
:101730008062904203D002F57842904219D14A6803
:1017400023F070031343234A904229D0B0F1804F15
:1017500026D0A2F57C42904222D002F580629042CF
:101760001ED002F5806290421AD002F57842904273
:1017700016D0194A904213D002F5806290420FD0E1
:1017800002F5806290420BD0A2F59832904207D0C9
:1017900002F58062904203D002F58062904203D14C
:1017A000CA6823F4407313434A6923F08003134348
:1017B00003608B68C3620B688362064B984203D058
:1017C00003F58063984201D10B69036301234361F0
:1017D000704700BF000001400040014010B50446C2
:1017E000A0B190F83D3003F0FF021BB980F83C2017
:1017F00000F090FD022384F83D302068211DFFF7A2
:1018000087FF012384F83D30002010BD0120FCE754
:1018100010B50446A0B190F83D3003F0FF021BB9AB
:1018200080F83C20FFF772FF022384F83D302068E7
:10183000211DFFF76DFF012384F83D30002010BD0E
:101840000120FCE7036A23F010030362036A70B50A
:10185000446882690D6822F4E64242EA05228D68F6
:1018600023F0200343EA0513104DA84203D005F5E9
:101870008065A84214D1CD6823F0800343EA0513A4
:101880000A4DA84223F0400303D005F58065A84225
:1018900006D1D1E9055624F44064354344EA850471
:1018A000446082614A688263036270BD0000014047
:1018B00038B590F83C30012B04464FF0020018D0A8
:1018C000012384F83C3084F83D001D460C2A0BD8D7
:1018D000DFE802F0070A0A0A100A0A0A140A0A0ACA
:1018E00018002068FFF772FE002084F83D5084F84D
:1018F0003C0038BD2068FFF7A5FFF5E72068FFF73B
:1019000097FEF1E72068FFF7C9FEEDE710B58468A0
:101910000A4324F47F4442EA03232343836010BD37
:1019200090F83C30012B70B504464FF0020019D0FE
:1019300084F83D002068012384F83C30836823F458
:101940007F4323F0770383600B68402B65D015D865
:10195000102B0CD007D853B10123002084F83D3060
:1019600084F83C0070BD202B01D0302BF4D182686C
:1019700043F0070322F0700213431AE0602B34D0C7
:1019800019D8502BE8D14A68CE68016A056A25F05B
:1019900001050562836921F00A0123F0F00343EA9F
:1019A00006130A4383610262836823F0700343F0E5
:1019B00057038360D0E7702B0CD0B3F5005FCBD119
:1019C000CB68D1E90121FFF7A1FF2268936843F4B6
:1019D000804308E0CB68D1E90121FFF797FF226837
:1019E000936843F077039360B6E74D68CE68016A69
:1019F00021F0100101628269036A22F4704223F02F
:101A0000A00343EA051342EA063282610362836857
:101A100023F0700343F06703CBE74A68CE68016A9E
:101A2000056A25F001050562836921F00A0123F0AA
:101A3000F00343EA06130A4383610262836823F0DA
:101A4000700343F04703B4E7036A01F01F0110B5C8
:101A500001248C4023EA04030362036A8A401A4388
:101A6000026210BD10B5044601220068FFF7ECFFCA
:101A700023680B4A934203D002F58062934203D15C
:101A80005A6C42F400425A649A6802F00702062A2D
:101A90001EBF1A6842F001021A60002010BD00BF8C
:101AA0000000014090F83C30012B30B54FF00203AC
:101AB00035D080F83D3003680D685C6824F0700410
:101AC00001222C4380F83C209A685C60154CA342AC
:101AD0001AD0B3F1804F17D0A4F57C44A34213D0A1
:101AE00004F58064A3420FD004F58064A3420BD0B8
:101AF00004F57844A34207D004F57054A34203D000
:101B0000A4F59434A34204D1496822F080020A4328
:101B10009A60012380F83D30002380F83C3018465D
:101B200030BD00BF000001400368DA6822F4907203
:101B3000DA605A6922F001025A61202380F83A30B3
:101B4000704700000368C1681A6970B522F44052FA
:101B500004460A431A612569A268D968C0692A4304
:101B6000656921F416412A4321F00C0102430A431E
:101B7000DA605A69A16922F440720A43B0F5004F55
:101B80005A61264A29D1934203D002F580629342DA
:101B900020D1FFF729FB6268002692184FF0190147
:101BA00046EB0603A0FB0101FEF78AFB6421B0FBB4
:101BB000F1F501FB1503DB003233B3FBF1F303F066
:101BC00007025B00216802EB051203F4F87313446B
:101BD0008B6070BDFFF7F8FADDE7934202D0104A40
:101BE000934217D1FFF700FB636819219A00A0FB0D
:101BF00001019B0FFEF764FB6422B0FBF2F102FBD4
:101C0000110324681B013233B3FBF2F303EB01131E
:101C1000A360DEE7FFF7D8FAE6E700BF0010014057
:101C200000140140F8B504460E4617461D462168CB
:101C30000B6836EA030301D1002014E06B1CF7D0D7
:101C400095B92368DA6822F4D072DA605A6922F012
:101C500001025A61202384F8393084F83A30002395
:101C600084F838300320F8BDFEF7F4FDC01B854230
:101C7000DDD2E6E710B5044640B390F8393003F002
:101C8000FF021BB980F8382000F086FB226824236D
:101C900084F83930D36823F40053D3602046FFF72B
:101CA00051FF23681A6922F490421A615A6922F09E
:101CB0002A025A61DA6842F40052DA6000202023D6
:101CC000E06384F8393084F83A3010BD0120FCE735
:101CD0002DE9F8431F4690F83930202B04460D4675
:101CE00090464FD100294BD0002A49D090F8383087
:101CF000012B47D0012380F838304FF00009212311
:101D0000C0F83C9080F83930FEF7A4FDA4F8248098
:101D10000646A4F8268084F83890E38C9BB253B929
:101D20003B46324640212046FFF77CFF98B92023EE
:101D300084F8393010E0E38C013B9BB2E384A36864
:101D4000B3F5805F32463B464FF0800120460ED10E
:101D5000FFF768FF10B10320BDE8F8832B882268E5
:101D6000C3F308035360236943B90235D5E7FFF78E
:101D700059FF0028EFD123682A785A600135CCE753
:101D80000120E9E70220E7E790F83A30202B20D144
:101D9000E9B1E2B190F83830012B1AD0C2858285C2
:101DA00000232222C36380F83A2002688162D1684E
:101DB00080F8383041F48071D160516941F00101FF
:101DC0005161D16841F02001D1601846704701206F
:101DD000704702207047704790F83A30222B10B5B8
:101DE00033D181680469836A0268B1F5805F23D1C9
:101DF0005268ECB9C2F3080223F8022B8362C48D47
:101E0000013CA4B2C4858CB90368DA6822F02002D0
:101E1000DA60DA6822F48072DA605A6922F001022C
:101E20005A61202380F83A3000F01EFA00200DE0BD
:101E3000D2B223F8012BE1E7591C526881620CB938
:101E40001A70DCE702F07F02FAE7022010BD70474B
:101E500003681A68D96870B5160704465D6907D12A
:101E600096065AD58D0658D5BDE87040FFF7B4BF29
:101E700015F0010502D111F4907F4ED0D00705D5A1
:101E8000CB0542BFE36B43F00103E363560704D580
:101E90001DB1E36B43F00203E363900704D51DB16A
:101EA000E36B43F00403E363130706D58E0600D407
:101EB0001DB1E36B43F00803E363E36B43B39506A3
:101EC00004D5880602D52046FFF786FF23685D69A2
:101ED000E26B1107204602D415F0400519D0FFF738
:101EE00023FE23685A6952060FD55A69606B22F0A7
:101EF00040025A6148B1264B0365FEF7C7FF38B16F
:101F0000606BBDE87040036D18472046FFF79FFFE8
:101F100070BDFFF79CFFE563FAE7160628D50D06AE
:101F200026D594F83920212AF2D1A168226AB1F588
:101F3000805F18D11188C1F308015960216981B906
:101F400002322262E28C013A92B2E284002ADFD1AC
:101F5000DA6822F08002DA60DA6842F04002DA6081
:101F6000D6E70132EDE7511C216212785A60E9E7A9
:101F70005006CDD54A06CBD5DA6822F04002DA60A9
:101F8000202384F839302046FFF725FFC0E700BF43
:101F9000951F000808B5806B0023C385C384FFF735
:101FA00056FF08BD30B5142495B02246002108A87C
:101FB00000F0A6FB2246002102A800F0A1FB0025AC
:101FC0001C4B00951A6C42F080521A641B6C1A4A22
:101FD00003F080530093009B0195136823F4404362
:101FE00043F480431360136803F4404301930122D8
:101FF000019B10230224CDE90A230F934FF4A8710B
:10200000042307A8CDE910130794CDE90D45CDE9C8
:102010001244FFF741F90F23CDE9023421464FF472
:10202000805302A80495CDE90535FFF733F815B0C4
:1020300030BD00BF00380240007000402DE9F04183
:1020400092B0FEF7BDFAFEF7DFFBFFF7ABFF1422FD
:1020500000210BA8002400F053FB724B01941A6B73
:102060007148724E724D42F004021A631A6B02F00C
:1020700004020192019A02941A6B42F080021A63E0
:102080001A6B02F080020292029A03941A6B42F0D9
:1020900001021A631A6B02F001020392039A04947C
:1020A0001A6B42F002021A631B6B03F00203224612
:1020B00004934FF4A171049BFEF7DAFF224620211E
:1020C0005C48FEF7D5FF5C4B57480D944FF4005227
:1020D0000BA90127CDE90B23FEF7EAFE4FF4A1730C
:1020E0000BA95148CDE90B37CDE90D44FEF7E0FED1
:1020F00020230BA94F48CDE90B37CDE90D44FEF75E
:10210000D7FE224621462820FEF768FE2820FEF74B
:1021100099FE4A4934614FF4E133C6E900134FF0A8
:1021200010080C233046C6E90534C6E90244F461C0
:10213000FFF7A0FD424621460BA800F0E1FA404817
:10214000AC604FF44033C5E900033E4B2C61284698
:102150002F7685F82040EC62AB62EC60EF6185F889
:1021600030406F61FEF77CFB374B0D940BA928467E
:10217000CDE90B37FEF780FD2146424607A8334DD7
:10218000334F00F0BDFA1C2221460BA8CDE90544CF
:1021900000F0B6FA5323C5E90073284642F21073E3
:1021A000C5E90334AC61C5F80880FFF717FB4FF4AD
:1021B000805307A928460793FFF7B2FB2846FFF78D
:1021C00027FB05A92846CDE90544FFF76BFC4FF036
:1021D000300C0A2322460BA92846CDE90BC30D94E7
:1021E0000F94FFF765FB284600F0ACF8194B1A492D
:1021F0001A783046FFF7C8FDFEF724FA00F012FA0D
:10220000FEF728FB0446FEF725FBA042FBD00F4853
:10221000FFF76AFA00210D48FFF724FCFEF714FAD5
:10222000FCE700BF00380240000802400004002024
:10223000B8030020000002400000211000440040CC
:10224000002001400100000F120000106C0300206C
:10225000000800400C000020AC030020B0F5005F37
:1022600001D100F07BB9704710B5064B064C1A78C7
:1022700006482146FFF788FD2046BDE8104000F0E3
:102280008DB900BF0C000020AC030020000400202A
:1022900000F0A8B982B00D4B002100915A6C42F4B5
:1022A00080425A645A6C02F480420092009A019172
:1022B0001A6C42F080521A641B6C03F08053019335
:1022C000019B072002B0FEF777BD00BF0038024037
:1022D00007B50F4B02689A4216D1002203F58C33E2
:1022E0000192596C41F4807159645B6C03F4807302
:1022F000019311461220019BFEF770FD122003B0DE
:102300005DF804EBFEF79EBD03B05DF804FB00BF73
:10231000002001400268094B9A4282B00BD1002391
:102320000193074B1A6C42F004021A641B6C03F011
:1023300004030193019B02B0704700BF00080040F6
:102340000038024010B5044686B01422002101A8CE
:1023500000F0D6F922680D4B9A4214D10023009365
:102360000B4B0C481A6B42F002021A631B6B03F012
:1023700002030093009B4022022301A9CDE901231F
:102380000593FEF795FD06B010BD00BF00080040A4
:10239000003802400004024010B5044688B0142200
:1023A000002103A800F0ACF92268184B9A422AD108
:1023B00003F5FA33002401941A6C154842F40032F4
:1023C0001A641A6C02F400320192019A02941A6B98
:1023D00042F001021A631B6B03F0010302930C220B
:1023E000029B0223CDE9032303210723CDE9061332
:1023F00003A9FEF75DFD262022462146FEF7EEFCEE
:102400002620FEF71FFD08B010BD00BF00440040AD
:10241000000002407047FEE7FEE7FEE7FEE7704778
:1024200070477047FEF70ABA0148FEF790BB00BF3D
:10243000B80300200148FFF70BBD00BF00040020D7
:102440004FF40050FEF71ABE0F49D1F8883043F41C
:102450007003C1F888300D4B1A68002042F0010269
:102460001A6098601A6822F0847222F480321A602E
:10247000074A5A601A6822F480221A60D8604FF026
:1024800000638B60704700BF00ED00E00038024041
:102490001030002438B5FEF7DDF90F4D0F4C2860E1
:1024A000012220210E48FEF7E3FDFEF7D3F90D4B84
:1024B0000D49002200F57A70FEF72EF923682A688C
:1024C0000A490B48D21A0B4B1A6000F039F9FEF793
:1024D000C1F9206038BD00BF440400206004002022
:1024E000000002407F000020F9240008573900084E
:1024F0004C0400204804002038B5FEF7ABF90F4D1E
:102500000F4C2860002220210E48FEF7B1FDFEF797
:10251000A1F90D4B0D49002200F57A70FEF7FCF889
:1025200023682A680A490B48D21A0B4B1A6000F03C
:1025300007F9FEF78FF9206038BD00BF4404002082
:1025400060040020000002407A000020952400086A
:10255000573900084C0400204804002008B54FF407
:1025600000510A48FEF77EFD70B90948FDF750FE9C
:10257000052382B206490748FFF7AAFB20B10648A7
:10258000BDE8084000F0C4B808BD00BF0008024024
:1025900014000020000400203839000810B503782A
:1025A00003F0DF03542B044602D10B48FEF74EFA2A
:1025B000237803F0DF02482A01D03F2B0AD10748D5
:1025C000FDF726FE0A2382B204490548BDE8104003
:1025D000FFF77EBB10BD00BFB80300201F00002026
:1025E000000400201FB500210B48FEF7DFF980B979
:1025F0000948FEF7A7FA09490246684600F0A0F824
:102600006846FDF705FE052382B269460448FFF7D8
:102610005FFB05B05DF804FBB803002052390008E9
:102620000004002008B50020FFF734FF0748FEF73C
:1026300043F8074B18700748FEF73EF8064B187032
:102640000648FEF739F8064B187008BDE525000866
:10265000640400209D250008410400205D25000839
:1026600040040020DFF834D0002103E00C4B5B581D
:10267000435004310B480C4B42189A42F6D30B4A94
:1026800002E0002342F8043B094B9A42F9D3FFF7DA
:10269000DBFE00F011F8FFF7D1FC704700000220CC
:1026A000083A000800000020E8000020E8000020B0
:1026B0006C040020FEE7000070B50D4E0D4CA41B0D
:1026C000A4100025A54209D10B4E0C4C01F006F9CF
:1026D000A41BA4100025A54205D170BD56F82530D5
:1026E00098470135EEE756F8253098470135F2E76F
:1026F000003A0008003A0008003A0008043A0008CE
:1027000002440346934200D1704703F8011BF9E7E6
:102710000FB40A4B13B51C6824B1A36913B9204642
:1027200000F0DEF905AB049AA1680193204600F0A1
:10273000E9FC02B0BDE8104004B0704784000020FE
:102740000EB400B59CB01DAB029006906FF0004136
:10275000094807910491094953F8042B0591006831
:10276000019302A900F0ACFB029B00221A701CB07E
:102770005DF804EB03B07047840000200802FFFFFF
:10278000F8B50E461446054618B183690BB900F03A
:10279000A7F9214B9C422AD16C68A369A360A38945
:1027A0001A072ED5236963B323692068C01A6369A9
:1027B000F6B28342374604DC2146284600F026F96B
:1027C00028BBA368013BA36023685A1C22601E70CB
:1027D00063690130834204D0A389DB0719D50A2E2F
:1027E00017D12146284600F011F990B10FE00B4BAC
:1027F0009C4201D1AC68D0E7094B9C4208BFEC6811
:10280000CBE72146284600F00DF80028CCD04FF049
:10281000FF373846F8BD00BF84390008A4390008E6
:1028200064390008324B70B51D6806460C4625B168
:10283000AB6913B9284600F053F92E4B9C420FD1D7
:102840006C68B4F90C309AB215072CD4D00611D4A8
:102850000922326043F04003A3814FF0FF303EE095
:10286000254B9C4201D1AC68EBE7244B9C4208BF4E
:10287000EC68E6E7510712D5616B41B104F14403FE
:10288000994202D0304600F019FA00236363A3890D
:1028900023F02403A3810023636023692360A389B9
:1028A00043F00803A38123694BB9A38903F4207380
:1028B000B3F5007F03D02146304600F0BFF9A2896E
:1028C00012F001030CD00023A36063695B42A36193
:1028D000236953B9B4F90C3013F08000BAD170BD3C
:1028E000920758BF6369A360F2E70020F7E700BFD3
:1028F0008400002084390008A439000864390008E5
:102900008A892DE9F041054610070C4658D44B68DA
:10291000002B05DC0B6C002B02DC0020BDE8F081F5
:10292000E66A002EF9D0002312F480522F68216A43
:102930002B6032D0606DA3895A0705D56368C01A31
:10294000636B0BB1236CC01A00230246E66A216A4E
:102950002846B047431CA38906D129681D2948D8B9
:10296000294ACA40D60744D500226260D9042269A8
:10297000226004D5421C01D12B6803B96065616BEC
:102980002F600029C9D004F14403994202D028469F
:1029900000F094F900206063C0E701232846B047A7
:1029A000411CC8D12B68002BC5D01D2B01D0162B84
:1029B00001D12F60B1E7A38943F04003A381ADE7C4
:1029C0000F69002FA9D093070E6808BF4B690F60ED
:1029D00018BF0023A6EB07088B60B8F1000F9CDD41
:1029E00043463A46216AA66A2846B047002806DCD4
:1029F000A38943F04003A3814FF0FF308EE70744E3
:102A0000A8EB0008E9E700BF0100402038B50B69DA
:102A100005460C46DBB118B183690BB900F060F8CC
:102A20000C4B9C4209D16C68B4F90C307BB1214647
:102A30002846BDE83840FFF763BF074B9C4201D1F1
:102A4000AC68F1E7054B9C4208BFEC68ECE700205E
:102A500038BD00BF84390008A43900086439000873
:102A6000002310B50446C0E90033836081814366CA
:102A7000C281C0E904338361194608225C30FFF744
:102A80003FFE054B6362054BA362054BE362054BBA
:102A90002462236310BD00BF61360008833600083E
:102AA000BB360008DF360008014900F085B800BFDA
:102AB0000D2A000870B54A1E682555430E4605F1DB
:102AC000740100F049F9044640B10021C0E9001644
:102AD0000C30A06005F16802FFF712FE204670BDC1
:102AE000836910B5044633BBC0E912330365124B4A
:102AF000124A1B688262984204BF0123836100F07E
:102B00001FF86060204600F01BF8A060204600F02F
:102B100017F80022E06004216068FFF7A1FF01229E
:102B20000921A068FFF79CFF02221221E068FFF74D
:102B300097FF0123A36110BD60390008A92A00088E
:102B4000F8B51B4B1E68B369074613B93046FFF74B
:102B5000C7FF4836D6E90134013B03D5336833B1AA
:102B60003668F7E7B4F90C506DB16834F4E7042126
:102B70003846FFF79FFF30600028F1D10C233B60FF
:102B800004462046F8BD0B4B6566C4E90055A560B8
:102B9000C4E90335C4E905550822294604F15C005F
:102BA000FFF7AEFDC4E90D55C4E91255E9E700BFD2
:102BB000603900080100FFFF2DE9F843804689468F
:102BC00000F14804002614B93046BDE8F883D4E982
:102BD0000175013F01D52468F5E7AB89012B07D9C1
:102BE000B5F90E30013303D029464046C8470643A5
:102BF0006835EEE770B50E46B1F90E10002996B0B3
:102C000014461D4607DA00232B60B3891A0610D438
:102C10004FF480630EE06A4600F088FD0028F2DB86
:102C2000019A02F47042A2F500535A425A412A60B6
:102C3000EEE740230020236016B070BD8B8973B58A
:102C40009D0706460C4607D504F147032360236120
:102C50000123636102B070BD01AB6A46FFF7CAFF92
:102C600000990546304600F077F848B9B4F90C30C1
:102C70009A05EFD423F0030343F00203A381E3E7B3
:102C80000D4BB362A389206043F08003A381009BB6
:102C90006361019B20615BB1B4F90E10304600F016
:102CA00057FD28B1A38923F0030343F00103A38157
:102CB000A3891D43A581CDE7A92A000838B505469B
:102CC000002945D051F8043C0C1F002BB8BFE41874
:102CD00000F084FD1F4A1368104633B96360146026
:102CE0002846BDE8384000F07ABDA3420CD92168DF
:102CF0006218934204BF1A685B68636004BF52188D
:102D000022600460ECE713465A680AB1A242FAD97D
:102D100019685818A0420BD1206801445818824203
:102D20001960DDD1106852685A6001441960D7E714
:102D300002D90C232B60D3E7206821188A4204BFF4
:102D400011685268626004BF091821605C60C7E7BF
:102D500038BD00BF0401002070B5CD1C25F003056F
:102D600008350C2D38BF0C25002D064601DBA94285
:102D700003D90C233360002070BD00F02FFD214AE1
:102D80001468214691B9204C23681BB9304600F0E5
:102D900057FC20602946304600F052FC431C24D1E9
:102DA0000C233360304600F01AFDE4E70B685B1B30
:102DB00018D40B2B0FD90B60CD50CC18304600F037
:102DC0000EFD04F10B00231D20F00700C31AD3D021
:102DD0005A42E250D0E78C424B6816BF63601360E2
:102DE0000C46EBE70C464968CCE7C41C24F003040E
:102DF000A04205D0211A304600F022FC0130CFD08D
:102E00002560DBE704010020080100202DE9F047E0
:102E10008E689E4282460C469046994637D88A89EB
:102E200012F4906F31D0256809696F1A6569022321
:102E300005EB450595FBF3F509F101033B449D4284
:102E400038BF1D46530530D52946FFF785FF064696
:102E500050B90C23CAF80030A38943F04003A38182
:102E60004FF0FF30BDE8F0873A46216900F092FC50
:102E7000A38923F4906343F08003A38126616561F5
:102E80003E44ED1B2660A5604E464E4500D94E4699
:102E900032464146206800F088FCA3689B1BA36073
:102EA00023681E4426600020DCE72A4600F098FCD8
:102EB00006460028E2D121695046FFF7FFFEC8E729
:102EC0002DE9F04F1D468B891F069DB080460C46AC
:102ED00016460FD50B696BB94021FFF73DFF206007
:102EE000206128B90C23C8F800304FF0FF30C8E04B
:102EF000402363610023099320238DF82930302378
:102F00008DF82A3003954FF0010B37463D4615F8F2
:102F1000013B0BB1252B3ED1B7EB060A0BD0534634
:102F2000324621464046FFF771FF013000F0A48091
:102F3000099B534409933B78002B00F09D800023AC
:102F40004FF0FF32CDE90523049307938DF85330FA
:102F50001A932F46052217F8011B5048FDF760F918
:102F6000049BD0B9D90644BF20228DF853201A07FC
:102F700044BF2B228DF853202A782A2A15D0079A8D
:102F80002F4600200A25394611F8013B303B092B1A
:102F90004DD9B8B10FE02F46B8E7404A801A0BFA76
:102FA00000F0184304903D46D3E7039A111D1268C0
:102FB0000391002A01DB079204E0524243F002032E
:102FC000079204933B782E2B0CD17B782A2B33D19C
:102FD000039B1A1D1B680392002BB8BF4FF0FF33F1
:102FE000023705932E4D397803222846FDF718F94C
:102FF00038B14023401B03FA00F0049B0343013720
:103000000493397827488DF8281006227E1CFDF796
:1030100007F9002838D0244B13BB039B073323F058
:10302000070308330393099B4B4409936DE705FBA2
:10303000023201200F46A6E7002301370593194607
:103040000A25384610F8012B303A092A03D9002BFB
:10305000C8D00591C6E705FB012101230746F0E72B
:1030600003AB00932246114B04A94046AFF3008006
:10307000B0F1FF3F8146D6D1A3895B063FF535AF5E
:1030800009981DB0BDE8F08F03AB00932246074BB3
:1030900004A9404600F0C2F9EAE700BFC4390008BD
:1030A000CA390008CE390008000000000D2E0008C3
:1030B0009368013B002B10B4936008DA9469A34233
:1030C00001DB0A2903D15DF8044BFFF759BB1368F4
:1030D000581C1060197008465DF8044B7047F8B52D
:1030E00006460F461446D518AC4201D1002007E031
:1030F0003A4614F8011B3046FFF7DAFF431CF3D1C0
:10310000F8BD00002DE9F04F0C469DB017461D4656
:10311000064618B183690BB9FFF7E2FC7C4B9C4271
:1031200058D17468A38918075ED52369002B5BD03A
:103130000023099320238DF8293030238DF82A307D
:1031400003954FF0010BB846454615F8013B0BB10E
:10315000252B54D1B8EB070A0BD053463A462146EB
:103160003046FFF7BCFF013000F0C280099B53449A
:10317000099398F80030002B00F0BA8000234FF03C
:10318000FF32CDE90523049307938DF853301A934A
:10319000A846052218F8011B5E48FDF741F8049B7C
:1031A00078BBD90644BF20228DF853201A0744BFAC
:1031B0002B228DF853202A782A2A2AD0079AA8464B
:1031C00000200A25414611F8013B303B092B69D903
:1031D00060B324E0504B9C4201D1B468A2E74F4B4E
:1031E0009C4208BFF4689DE721463046FFF71AFB72
:1031F00000289DD04FF0FF301DB0BDE8F08FA846ED
:10320000A2E7444A801A0BFA00F01843049045469E
:10321000BEE7039A111D12680391002A01DB079291
:1032200004E0524243F002030792049398F80030FE
:103230002E2B0ED198F801302A2B38D1039B1A1D62
:103240001B680392002BB8BF4FF0FF3308F1020850
:103250000593334D98F8001003222846FCF7E0FF51
:1032600040B14023401B03FA00F0049B034308F1E4
:103270000108049398F800102A488DF828100622B7
:1032800008F10107FCF7CCFF002837D0264B1BBB09
:10329000039B073323F0070308330393099B4B4435
:1032A000099350E705FB0232012088468AE7002394
:1032B00008F10108059319460A25404610F8012B2C
:1032C000303A092A03D9002BC3D00591C1E705FB89
:1032D000012101238046F0E703AB00932246134B04
:1032E00004A93046AFF30080B0F1FF3F8146D5D14D
:1032F000A3895B063FF57EAF09987DE703AB00939A
:1033000022460A4B04A9304600F088F8ECE700BFDB
:1033100084390008C4390008A43900086439000859
:10332000CA390008CE39000800000000DF3000086C
:103330002DE9F04791461F468A680B69DDF8208029
:103340009342B8BF1346C9F8003091F843200646AF
:103350000C4612B10133C9F800302368990642BF08
:10336000D9F800300233C9F80030256815F0060599
:1033700007D104F1190AE368D9F800209B1AAB427F
:1033800028DC94F843302268003318BF01239206EA
:103390002DD404F1430239463046C047013020D0D5
:1033A0002368E568D9F8002003F00603042B08BF62
:1033B000AD1AA36822690CBF25EAE5750025934282
:1033C000C4BF9B1AED184FF000091A344D451AD1AD
:1033D000002008E00123524639463046C0470130FC
:1033E00003D14FF0FF30BDE8F0870135C3E7E118A6
:1033F0005A1C302081F84300224494F8451082F88A
:1034000043100233C5E70123224639463046C04700
:103410000130E6D009F10109D8E700002DE9F043B9
:1034200001F1430C0C46097E85B06E29174606460D
:1034300098460C9A00F0B38022D8632936D00AD877
:10344000002900F0B980582900F0838004F142057A
:1034500084F8421032E0642901D06929F6D120684D
:103460001368050603F104012AD51B681160002BBF
:1034700003DA2D225B4284F843206F480A2239E0A8
:10348000732900F09D8008D86F2920D07029DDD1E4
:10349000236843F02003236003E0752917D07829BF
:1034A000D4D1782384F84530644855E01368191D59
:1034B0001B68116004F1420584F8423001238CE05E
:1034C0001B68116010F0400F18BF1BB2CFE71368E4
:1034D0002568181D1060280601D51B6802E06806E3
:1034E000FBD51B8854486F2914BF0A2208220021EB
:1034F00084F843106568A560002DC0F295802168AE
:1035000021F004012160002B3DD1002D40F08E8080
:103510006546082A0BD12368DB0708D52369626852
:103520009A42DEBF302305F8013C05F1FF35ACEBD4
:1035300005032361CDF800803B4603AA21463046AF
:10354000FFF7F6FE01304DD14FF0FF3005B0BDE87A
:10355000F083394884F84510136821681D1D1B68E5
:1035600015600A060BD5CA0744BF41F0200121604F
:103570001BB9226822F0200222601022B7E74D0614
:1035800048BF9BB2EFE76546B3FBF2F102FB113394
:10359000C35C05F8013D0B460029F5D1B9E7136876
:1035A00025686169181D106028061B6801D519601F
:1035B00002E06A06FBD51980002323616546B9E75E
:1035C0001368191D11601D68626800212846FCF708
:1035D00027FE08B1401B606063682361002384F804
:1035E0004330A7E723692A4639463046C0470130B1
:1035F000AAD023689B0713D4E068039B9842B8BF06
:103600001846A3E701234A4639463046C0470130F1
:103610009AD00135E368039A9B1AAB42F2DCEBE7E0
:10362000002504F11909F5E7002BACD1037884F8E3
:10363000423004F142056CE7D5390008E63900084C
:1036400038B5064C002305460846236000F030F9E3
:10365000431C02D1236803B12B6038BD68040020ED
:1036600010B50C46B1F90E1000F0E0F80028ABBF21
:10367000636DA3891B1823F48053ACBF6365A381DA
:1036800010BD2DE9F0411F468B89DB0505460C4630
:10369000164605D502230022B1F90E1000F068F895
:1036A000A389B4F90E1023F48053A38132463B461C
:1036B0002846BDE8F04100F017B810B50C46B1F946
:1036C0000E1000F055F8431CA38915BF606523F464
:1036D000805343F48053A38118BFA38110BDB1F977
:1036E0000E1000F013B8000038B5074C0546084628
:1036F0001146002222601A4600F0E8F8431C02D16D
:10370000236803B12B6038BD6804002038B5064C2F
:10371000002305460846236000F0A2F8431C02D1AE
:10372000236803B12B6038BD6804002038B5074C0E
:103730000023054608461146236000F099F8431C13
:1037400002D1236803B12B6038BD00BF680400209C
:1037500038B5064C002305460846236000F090F873
:10376000431C02D1236803B12B6038BD68040020DC
:1037700038B5074C054608461146002222601A4615
:1037800000F086F8431C02D1236803B12B6038BDDA
:103790006804002010B5431E0A44914200D110BDB8
:1037A00011F8014B03F8014FF7E7884210B501EB20
:1037B000020307D8421E99420AD011F8014B02F8C1
:1037C000014FF8E78342F5D98118D21AD34200D1CC
:1037D00010BD13F8014D01F8014DF7E77047704730
:1037E000F8B5074614460E4621B91146BDE8F84023
:1037F000FFF7B2BA22B9FFF761FA25462846F8BDAD
:1038000000F026F8A0420FD221463846FFF7A4FA6E
:1038100005460028F2D031462246FFF7BBFF31466D
:103820003846FFF74BFAE9E73546E7E738B5074C86
:10383000054608461146002222601A4600F030F87C
:10384000431C02D1236803B12B6038BD68040020FB
:1038500051F8043C181F002BBCBF0B58C018704710
:10386000024B58221A604FF0FF3070476804002066
:10387000024B58221A604FF0FF3070476804002056
:10388000024B58221A600020704700BF68040020D5
:10389000024B58221A604FF0FF3070476804002036
:1038A000024B58221A604FF0FF3070476804002026
:1038B000044B1968024609B90349196018680244A3
:1038C0001A6070470C01002044040020024B58226B
:1038D0001A604FF0FF30704768040020F8B500BF51
:1038E000F8BC08BC9E467047F8B500BFF8BC08BCE1
:0438F0009E46704739
:1038F4004E4F2054494D454F555453204C45465442
:10390400203D2025640A005343485F544F5F5345CC
:10391400543D2025642C257320230A000000000058
:10392400000000000102030406070809000000006B
:10393400010203044465627567206572726F722028
:103944007768696C65205541525420547800543D81
:10395400256400443D25642075730A008800002016
:103964000000000000000000000000000000000053
:103974000000000000000000000000000000000043
:103984000000000000000000000000000000000033
:103994000000000000000000000000000000000023
:1039A4000000000000000000000000000000000013
:1039B4000000000000000000000000000000000003
:1039C400232D302B2000686C4C0065666745464704
:1039D4000030313233343536373839414243444587
:1039E40046003031323334353637383961626364F6
:0439F4006566000004
:0839F800F8C8FF7F0100000088
:043A0000F5010008C4
:043A0400D1010008E4
:103A08004E4F4E450001000010000000010000006C
:103A18000024F40054726967676572656421005474
:103A280068697320636F6465206D6F6E69746F7267
:103A38007320666F7220626C75652F7573657220CE
:103A4800627574746F6E20747269676765722C2072
:103A5800616E64207265616473204144433120774C
:103A680068656E2061736B65642077697468206C83
:103A7800657474657220277427004C454431004CE6
:103A88004544320088000020000000008439000806
:103A9800A439000864390008000000000000000094
:103AA800000000000000000000000000000000000E
:103AB80000000000000000000000000000000000FE
:103AC80000000000000000000000000000000000EE
:103AD80000000000000000000000000000000000DE
:083AE8000000000000000000D6
:040000050800266564
:00000001FF
